{
  "contractName": "DocumentVerification",
  "abi": [
    {
      "inputs": [],
      "stateMutability": "nonpayable",
      "type": "constructor"
    },
    {
      "inputs": [
        {
          "internalType": "uint256",
          "name": "",
          "type": "uint256"
        }
      ],
      "name": "adminAddresses",
      "outputs": [
        {
          "internalType": "address",
          "name": "",
          "type": "address"
        }
      ],
      "stateMutability": "view",
      "type": "function",
      "constant": true
    },
    {
      "inputs": [
        {
          "internalType": "string",
          "name": "",
          "type": "string"
        }
      ],
      "name": "certificates",
      "outputs": [
        {
          "internalType": "string",
          "name": "name",
          "type": "string"
        },
        {
          "internalType": "uint256",
          "name": "academicYear",
          "type": "uint256"
        },
        {
          "internalType": "uint256",
          "name": "date",
          "type": "uint256"
        },
        {
          "internalType": "string",
          "name": "issuer",
          "type": "string"
        },
        {
          "internalType": "string",
          "name": "gpa",
          "type": "string"
        },
        {
          "internalType": "string",
          "name": "behavior",
          "type": "string"
        },
        {
          "internalType": "string",
          "name": "certificateType",
          "type": "string"
        },
        {
          "internalType": "string",
          "name": "certificateId",
          "type": "string"
        },
        {
          "internalType": "string",
          "name": "fileHash",
          "type": "string"
        }
      ],
      "stateMutability": "view",
      "type": "function",
      "constant": true
    },
    {
      "inputs": [
        {
          "internalType": "address",
          "name": "",
          "type": "address"
        }
      ],
      "name": "contractAdmins",
      "outputs": [
        {
          "internalType": "bool",
          "name": "",
          "type": "bool"
        }
      ],
      "stateMutability": "view",
      "type": "function",
      "constant": true
    },
    {
      "inputs": [],
      "name": "contractOwner",
      "outputs": [
        {
          "internalType": "address",
          "name": "",
          "type": "address"
        }
      ],
      "stateMutability": "view",
      "type": "function",
      "constant": true
    },
    {
      "inputs": [
        {
          "internalType": "address",
          "name": "",
          "type": "address"
        }
      ],
      "name": "universities",
      "outputs": [
        {
          "internalType": "string",
          "name": "name",
          "type": "string"
        }
      ],
      "stateMutability": "view",
      "type": "function",
      "constant": true
    },
    {
      "inputs": [
        {
          "internalType": "uint256",
          "name": "",
          "type": "uint256"
        }
      ],
      "name": "universityAddresses",
      "outputs": [
        {
          "internalType": "address",
          "name": "",
          "type": "address"
        }
      ],
      "stateMutability": "view",
      "type": "function",
      "constant": true
    },
    {
      "inputs": [
        {
          "internalType": "address",
          "name": "admin",
          "type": "address"
        }
      ],
      "name": "addAdmin",
      "outputs": [],
      "stateMutability": "nonpayable",
      "type": "function"
    },
    {
      "inputs": [
        {
          "internalType": "address",
          "name": "admin",
          "type": "address"
        }
      ],
      "name": "removeAdmin",
      "outputs": [],
      "stateMutability": "nonpayable",
      "type": "function"
    },
    {
      "inputs": [
        {
          "internalType": "address",
          "name": "universityAddress",
          "type": "address"
        },
        {
          "internalType": "string",
          "name": "name",
          "type": "string"
        }
      ],
      "name": "addUniversity",
      "outputs": [],
      "stateMutability": "nonpayable",
      "type": "function"
    },
    {
      "inputs": [
        {
          "internalType": "address",
          "name": "universityAddress",
          "type": "address"
        },
        {
          "internalType": "address",
          "name": "toAuthorize",
          "type": "address"
        }
      ],
      "name": "authorizeAddress",
      "outputs": [],
      "stateMutability": "nonpayable",
      "type": "function"
    },
    {
      "inputs": [
        {
          "internalType": "address",
          "name": "universityAddress",
          "type": "address"
        },
        {
          "internalType": "string",
          "name": "name",
          "type": "string"
        },
        {
          "internalType": "uint256",
          "name": "academicYear",
          "type": "uint256"
        },
        {
          "internalType": "uint256",
          "name": "date",
          "type": "uint256"
        },
        {
          "internalType": "string",
          "name": "issuer",
          "type": "string"
        },
        {
          "internalType": "string",
          "name": "gpa",
          "type": "string"
        },
        {
          "internalType": "string",
          "name": "behavior",
          "type": "string"
        },
        {
          "internalType": "string",
          "name": "certificateType",
          "type": "string"
        },
        {
          "internalType": "string",
          "name": "certificateId",
          "type": "string"
        },
        {
          "internalType": "string",
          "name": "fileHash",
          "type": "string"
        }
      ],
      "name": "addCertificate",
      "outputs": [],
      "stateMutability": "nonpayable",
      "type": "function"
    },
    {
      "inputs": [
        {
          "internalType": "string",
          "name": "fileHash",
          "type": "string"
        }
      ],
      "name": "validateCertificate",
      "outputs": [
        {
          "internalType": "bool",
          "name": "",
          "type": "bool"
        }
      ],
      "stateMutability": "view",
      "type": "function",
      "constant": true
    },
    {
      "inputs": [],
      "name": "getAdmins",
      "outputs": [
        {
          "internalType": "address[]",
          "name": "",
          "type": "address[]"
        }
      ],
      "stateMutability": "view",
      "type": "function",
      "constant": true
    },
    {
      "inputs": [],
      "name": "getUniversities",
      "outputs": [
        {
          "internalType": "address[]",
          "name": "",
          "type": "address[]"
        }
      ],
      "stateMutability": "view",
      "type": "function",
      "constant": true
    },
    {
      "inputs": [
        {
          "internalType": "address",
          "name": "universityAddress",
          "type": "address"
        }
      ],
      "name": "getUniversityDetails",
      "outputs": [
        {
          "internalType": "string",
          "name": "",
          "type": "string"
        },
        {
          "internalType": "address[]",
          "name": "",
          "type": "address[]"
        }
      ],
      "stateMutability": "view",
      "type": "function",
      "constant": true
    }
  ],
  "bytecode": "0x608060405234801561001057600080fd5b5033600560006101000a81548173ffffffffffffffffffffffffffffffffffffffff021916908373ffffffffffffffffffffffffffffffffffffffff1602179055506121d7806100616000396000f3fe608060405234801561001057600080fd5b50600436106100f55760003560e01c80638f2b91ea11610097578063ce606ee011610066578063ce606ee01461029f578063db4d7dcd146102bd578063f0995560146102d9578063f80f12f814610309576100f5565b80638f2b91ea146101fd578063a908dc6214610235578063b934282214610251578063ba44eecf1461026f576100f5565b806334ed2694116100d357806334ed26941461016457806337c19dc21461019457806370480275146101c557806371800900146101e1576100f5565b80631785f53c146100fa5780632df68d721461011657806331ae450b14610146575b600080fd5b610114600480360381019061010f919061151d565b610339565b005b610130600480360381019061012b9190611690565b610423565b60405161013d91906116f4565b60405180910390f35b61014e6104f0565b60405161015b91906117cd565b60405180910390f35b61017e60048036038101906101799190611825565b61057e565b60405161018b9190611861565b60405180910390f35b6101ae60048036038101906101a9919061151d565b6105bd565b6040516101bc9291906118fb565b60405180910390f35b6101df60048036038101906101da919061151d565b610761565b005b6101fb60048036038101906101f69190611932565b6108ae565b005b61021760048036038101906102129190611690565b610b32565b60405161022c99989796959493929190611ae4565b60405180910390f35b61024f600480360381019061024a9190611ba2565b610f4e565b005b610259611119565b60405161026691906117cd565b60405180910390f35b61028960048036038101906102849190611825565b6111a7565b6040516102969190611861565b60405180910390f35b6102a76111e6565b6040516102b49190611861565b60405180910390f35b6102d760048036038101906102d29190611bfe565b61120c565b005b6102f360048036038101906102ee919061151d565b61133e565b6040516103009190611c3e565b60405180910390f35b610323600480360381019061031e919061151d565b6113e4565b60405161033091906116f4565b60405180910390f35b600560009054906101000a900473ffffffffffffffffffffffffffffffffffffffff1673ffffffffffffffffffffffffffffffffffffffff163373ffffffffffffffffffffffffffffffffffffffff16146103c9576040517f08c379a00000000000000000000000000000000000000000000000000000000081526004016103c090611cac565b60405180910390fd5b60008060008373ffffffffffffffffffffffffffffffffffffffff1673ffffffffffffffffffffffffffffffffffffffff16815260200190815260200160002060006101000a81548160ff02191690831515021790555050565b6000806002836040516104369190611d08565b9081526020016040518091039020600001805461045290611d4e565b80601f016020809104026020016040519081016040528092919081815260200182805461047e90611d4e565b80156104cb5780601f106104a0576101008083540402835291602001916104cb565b820191906000526020600020905b8154815290600101906020018083116104ae57829003601f168201915b5050505050905060008151036104e55760009150506104eb565b60019150505b919050565b6060600380548060200260200160405190810160405280929190818152602001828054801561057457602002820191906000526020600020905b8160009054906101000a900473ffffffffffffffffffffffffffffffffffffffff1673ffffffffffffffffffffffffffffffffffffffff168152602001906001019080831161052a575b5050505050905090565b6004818154811061058e57600080fd5b906000526020600020016000915054906101000a900473ffffffffffffffffffffffffffffffffffffffff1681565b606080600160008473ffffffffffffffffffffffffffffffffffffffff1673ffffffffffffffffffffffffffffffffffffffff168152602001908152602001600020600001600160008573ffffffffffffffffffffffffffffffffffffffff1673ffffffffffffffffffffffffffffffffffffffff16815260200190815260200160002060010181805461065090611d4e565b80601f016020809104026020016040519081016040528092919081815260200182805461067c90611d4e565b80156106c95780601f1061069e576101008083540402835291602001916106c9565b820191906000526020600020905b8154815290600101906020018083116106ac57829003601f168201915b505050505091508080548060200260200160405190810160405280929190818152602001828054801561075157602002820191906000526020600020905b8160009054906101000a900473ffffffffffffffffffffffffffffffffffffffff1673ffffffffffffffffffffffffffffffffffffffff1681526020019060010190808311610707575b5050505050905091509150915091565b600560009054906101000a900473ffffffffffffffffffffffffffffffffffffffff1673ffffffffffffffffffffffffffffffffffffffff163373ffffffffffffffffffffffffffffffffffffffff16146107f1576040517f08c379a00000000000000000000000000000000000000000000000000000000081526004016107e890611cac565b60405180910390fd5b60016000808373ffffffffffffffffffffffffffffffffffffffff1673ffffffffffffffffffffffffffffffffffffffff16815260200190815260200160002060006101000a81548160ff0219169083151502179055506003819080600181540180825580915050600190039060005260206000200160009091909190916101000a81548173ffffffffffffffffffffffffffffffffffffffff021916908373ffffffffffffffffffffffffffffffffffffffff16021790555050565b896000805b600160008473ffffffffffffffffffffffffffffffffffffffff1673ffffffffffffffffffffffffffffffffffffffff168152602001908152602001600020600101805490508110156109cd573373ffffffffffffffffffffffffffffffffffffffff16600160008573ffffffffffffffffffffffffffffffffffffffff1673ffffffffffffffffffffffffffffffffffffffff168152602001908152602001600020600101828154811061096b5761096a611d7f565b5b9060005260206000200160009054906101000a900473ffffffffffffffffffffffffffffffffffffffff1673ffffffffffffffffffffffffffffffffffffffff16036109ba57600191506109cd565b80806109c590611ddd565b9150506108b3565b5080610a0e576040517f08c379a0000000000000000000000000000000000000000000000000000000008152600401610a0590611e97565b60405180910390fd5b60006040518061012001604052808d81526020018c81526020018b81526020018a815260200189815260200188815260200187815260200186815260200185815250905080600285604051610a639190611d08565b90815260200160405180910390206000820151816000019081610a869190612063565b5060208201518160010155604082015181600201556060820151816003019081610ab09190612063565b506080820151816004019081610ac69190612063565b5060a0820151816005019081610adc9190612063565b5060c0820151816006019081610af29190612063565b5060e0820151816007019081610b089190612063565b50610100820151816008019081610b1f9190612063565b5090505050505050505050505050505050565b600281805160208101820180518482526020830160208501208183528095505050505050600091509050806000018054610b6b90611d4e565b80601f0160208091040260200160405190810160405280929190818152602001828054610b9790611d4e565b8015610be45780601f10610bb957610100808354040283529160200191610be4565b820191906000526020600020905b815481529060010190602001808311610bc757829003601f168201915b505050505090806001015490806002015490806003018054610c0590611d4e565b80601f0160208091040260200160405190810160405280929190818152602001828054610c3190611d4e565b8015610c7e5780601f10610c5357610100808354040283529160200191610c7e565b820191906000526020600020905b815481529060010190602001808311610c6157829003601f168201915b505050505090806004018054610c9390611d4e565b80601f0160208091040260200160405190810160405280929190818152602001828054610cbf90611d4e565b8015610d0c5780601f10610ce157610100808354040283529160200191610d0c565b820191906000526020600020905b815481529060010190602001808311610cef57829003601f168201915b505050505090806005018054610d2190611d4e565b80601f0160208091040260200160405190810160405280929190818152602001828054610d4d90611d4e565b8015610d9a5780601f10610d6f57610100808354040283529160200191610d9a565b820191906000526020600020905b815481529060010190602001808311610d7d57829003601f168201915b505050505090806006018054610daf90611d4e565b80601f0160208091040260200160405190810160405280929190818152602001828054610ddb90611d4e565b8015610e285780601f10610dfd57610100808354040283529160200191610e28565b820191906000526020600020905b815481529060010190602001808311610e0b57829003601f168201915b505050505090806007018054610e3d90611d4e565b80601f0160208091040260200160405190810160405280929190818152602001828054610e6990611d4e565b8015610eb65780601f10610e8b57610100808354040283529160200191610eb6565b820191906000526020600020905b815481529060010190602001808311610e9957829003601f168201915b505050505090806008018054610ecb90611d4e565b80601f0160208091040260200160405190810160405280929190818152602001828054610ef790611d4e565b8015610f445780601f10610f1957610100808354040283529160200191610f44565b820191906000526020600020905b815481529060010190602001808311610f2757829003601f168201915b5050505050905089565b6000803373ffffffffffffffffffffffffffffffffffffffff1673ffffffffffffffffffffffffffffffffffffffff16815260200190815260200160002060009054906101000a900460ff16610fd9576040517f08c379a0000000000000000000000000000000000000000000000000000000008152600401610fd090612181565b60405180910390fd5b60006040518060400160405280838152602001600067ffffffffffffffff81111561100757611006611565565b5b6040519080825280602002602001820160405280156110355781602001602082028036833780820191505090505b50815250905080600160008573ffffffffffffffffffffffffffffffffffffffff1673ffffffffffffffffffffffffffffffffffffffff16815260200190815260200160002060008201518160000190816110909190612063565b5060208201518160010190805190602001906110ad929190611404565b509050506004839080600181540180825580915050600190039060005260206000200160009091909190916101000a81548173ffffffffffffffffffffffffffffffffffffffff021916908373ffffffffffffffffffffffffffffffffffffffff160217905550505050565b6060600480548060200260200160405190810160405280929190818152602001828054801561119d57602002820191906000526020600020905b8160009054906101000a900473ffffffffffffffffffffffffffffffffffffffff1673ffffffffffffffffffffffffffffffffffffffff1681526020019060010190808311611153575b5050505050905090565b600381815481106111b757600080fd5b906000526020600020016000915054906101000a900473ffffffffffffffffffffffffffffffffffffffff1681565b600560009054906101000a900473ffffffffffffffffffffffffffffffffffffffff1681565b6000803373ffffffffffffffffffffffffffffffffffffffff1673ffffffffffffffffffffffffffffffffffffffff16815260200190815260200160002060009054906101000a900460ff16611297576040517f08c379a000000000000000000000000000000000000000000000000000000000815260040161128e90612181565b60405180910390fd5b600160008373ffffffffffffffffffffffffffffffffffffffff1673ffffffffffffffffffffffffffffffffffffffff168152602001908152602001600020600101819080600181540180825580915050600190039060005260206000200160009091909190916101000a81548173ffffffffffffffffffffffffffffffffffffffff021916908373ffffffffffffffffffffffffffffffffffffffff1602179055505050565b600160205280600052604060002060009150905080600001805461136190611d4e565b80601f016020809104026020016040519081016040528092919081815260200182805461138d90611d4e565b80156113da5780601f106113af576101008083540402835291602001916113da565b820191906000526020600020905b8154815290600101906020018083116113bd57829003601f168201915b5050505050905081565b60006020528060005260406000206000915054906101000a900460ff1681565b82805482825590600052602060002090810192821561147d579160200282015b8281111561147c5782518260006101000a81548173ffffffffffffffffffffffffffffffffffffffff021916908373ffffffffffffffffffffffffffffffffffffffff16021790555091602001919060010190611424565b5b50905061148a919061148e565b5090565b5b808211156114a757600081600090555060010161148f565b5090565b6000604051905090565b600080fd5b600080fd5b600073ffffffffffffffffffffffffffffffffffffffff82169050919050565b60006114ea826114bf565b9050919050565b6114fa816114df565b811461150557600080fd5b50565b600081359050611517816114f1565b92915050565b600060208284031215611533576115326114b5565b5b600061154184828501611508565b91505092915050565b600080fd5b600080fd5b6000601f19601f8301169050919050565b7f4e487b7100000000000000000000000000000000000000000000000000000000600052604160045260246000fd5b61159d82611554565b810181811067ffffffffffffffff821117156115bc576115bb611565565b5b80604052505050565b60006115cf6114ab565b90506115db8282611594565b919050565b600067ffffffffffffffff8211156115fb576115fa611565565b5b61160482611554565b9050602081019050919050565b82818337600083830152505050565b600061163361162e846115e0565b6115c5565b90508281526020810184848401111561164f5761164e61154f565b5b61165a848285611611565b509392505050565b600082601f8301126116775761167661154a565b5b8135611687848260208601611620565b91505092915050565b6000602082840312156116a6576116a56114b5565b5b600082013567ffffffffffffffff8111156116c4576116c36114ba565b5b6116d084828501611662565b91505092915050565b60008115159050919050565b6116ee816116d9565b82525050565b600060208201905061170960008301846116e5565b92915050565b600081519050919050565b600082825260208201905092915050565b6000819050602082019050919050565b611744816114df565b82525050565b6000611756838361173b565b60208301905092915050565b6000602082019050919050565b600061177a8261170f565b611784818561171a565b935061178f8361172b565b8060005b838110156117c05781516117a7888261174a565b97506117b283611762565b925050600181019050611793565b5085935050505092915050565b600060208201905081810360008301526117e7818461176f565b905092915050565b6000819050919050565b611802816117ef565b811461180d57600080fd5b50565b60008135905061181f816117f9565b92915050565b60006020828403121561183b5761183a6114b5565b5b600061184984828501611810565b91505092915050565b61185b816114df565b82525050565b60006020820190506118766000830184611852565b92915050565b600081519050919050565b600082825260208201905092915050565b60005b838110156118b657808201518184015260208101905061189b565b60008484015250505050565b60006118cd8261187c565b6118d78185611887565b93506118e7818560208601611898565b6118f081611554565b840191505092915050565b6000604082019050818103600083015261191581856118c2565b90508181036020830152611929818461176f565b90509392505050565b6000806000806000806000806000806101408b8d031215611956576119556114b5565b5b60006119648d828e01611508565b9a505060208b013567ffffffffffffffff811115611985576119846114ba565b5b6119918d828e01611662565b99505060406119a28d828e01611810565b98505060606119b38d828e01611810565b97505060808b013567ffffffffffffffff8111156119d4576119d36114ba565b5b6119e08d828e01611662565b96505060a08b013567ffffffffffffffff811115611a0157611a006114ba565b5b611a0d8d828e01611662565b95505060c08b013567ffffffffffffffff811115611a2e57611a2d6114ba565b5b611a3a8d828e01611662565b94505060e08b013567ffffffffffffffff811115611a5b57611a5a6114ba565b5b611a678d828e01611662565b9350506101008b013567ffffffffffffffff811115611a8957611a886114ba565b5b611a958d828e01611662565b9250506101208b013567ffffffffffffffff811115611ab757611ab66114ba565b5b611ac38d828e01611662565b9150509295989b9194979a5092959850565b611ade816117ef565b82525050565b6000610120820190508181036000830152611aff818c6118c2565b9050611b0e602083018b611ad5565b611b1b604083018a611ad5565b8181036060830152611b2d81896118c2565b90508181036080830152611b4181886118c2565b905081810360a0830152611b5581876118c2565b905081810360c0830152611b6981866118c2565b905081810360e0830152611b7d81856118c2565b9050818103610100830152611b9281846118c2565b90509a9950505050505050505050565b60008060408385031215611bb957611bb86114b5565b5b6000611bc785828601611508565b925050602083013567ffffffffffffffff811115611be857611be76114ba565b5b611bf485828601611662565b9150509250929050565b60008060408385031215611c1557611c146114b5565b5b6000611c2385828601611508565b9250506020611c3485828601611508565b9150509250929050565b60006020820190508181036000830152611c5881846118c2565b905092915050565b7f43616c6c6572206973206e6f7420746865206f776e6572000000000000000000600082015250565b6000611c96601783611887565b9150611ca182611c60565b602082019050919050565b60006020820190508181036000830152611cc581611c89565b9050919050565b600081905092915050565b6000611ce28261187c565b611cec8185611ccc565b9350611cfc818560208601611898565b80840191505092915050565b6000611d148284611cd7565b915081905092915050565b7f4e487b7100000000000000000000000000000000000000000000000000000000600052602260045260246000fd5b60006002820490506001821680611d6657607f821691505b602082108103611d7957611d78611d1f565b5b50919050565b7f4e487b7100000000000000000000000000000000000000000000000000000000600052603260045260246000fd5b7f4e487b7100000000000000000000000000000000000000000000000000000000600052601160045260246000fd5b6000611de8826117ef565b91507fffffffffffffffffffffffffffffffffffffffffffffffffffffffffffffffff8203611e1a57611e19611dae565b5b600182019050919050565b7f43616c6c6572206973206e6f7420617574686f72697a656420666f722074686960008201527f7320756e69766572736974790000000000000000000000000000000000000000602082015250565b6000611e81602c83611887565b9150611e8c82611e25565b604082019050919050565b60006020820190508181036000830152611eb081611e74565b9050919050565b60008190508160005260206000209050919050565b60006020601f8301049050919050565b600082821b905092915050565b600060088302611f197fffffffffffffffffffffffffffffffffffffffffffffffffffffffffffffffff82611edc565b611f238683611edc565b95508019841693508086168417925050509392505050565b6000819050919050565b6000611f60611f5b611f56846117ef565b611f3b565b6117ef565b9050919050565b6000819050919050565b611f7a83611f45565b611f8e611f8682611f67565b848454611ee9565b825550505050565b600090565b611fa3611f96565b611fae818484611f71565b505050565b5b81811015611fd257611fc7600082611f9b565b600181019050611fb4565b5050565b601f82111561201757611fe881611eb7565b611ff184611ecc565b81016020851015612000578190505b61201461200c85611ecc565b830182611fb3565b50505b505050565b600082821c905092915050565b600061203a6000198460080261201c565b1980831691505092915050565b60006120538383612029565b9150826002028217905092915050565b61206c8261187c565b67ffffffffffffffff81111561208557612084611565565b5b61208f8254611d4e565b61209a828285611fd6565b600060209050601f8311600181146120cd57600084156120bb578287015190505b6120c58582612047565b86555061212d565b601f1984166120db86611eb7565b60005b82811015612103578489015182556001820191506020850194506020810190506120de565b86831015612120578489015161211c601f891682612029565b8355505b6001600288020188555050505b505050505050565b7f43616c6c6572206973206e6f7420616e2061646d696e00000000000000000000600082015250565b600061216b601683611887565b915061217682612135565b602082019050919050565b6000602082019050818103600083015261219a8161215e565b905091905056fea26469706673582212202c397bc9bba152fca04b22e23c657edbbfac3795715670e86464f928096d786064736f6c63430008130033",
  "immutableReferences": {},
  "source": "// SPDX-License-Identifier: MIT\npragma solidity ^0.8.0;\n\ncontract DocumentVerification {\n    struct Certificate {\n        string name;\n        uint academicYear;\n        uint date;\n        string issuer;\n        string gpa;\n        string behavior;\n        string certificateType;\n        string certificateId;\n        string fileHash;\n    }\n\n    struct University {\n        string name;\n        address[] authorizedAddresses;\n    }\n\n    mapping(address => bool) public contractAdmins;\n    mapping(address => University) public universities;\n    mapping(string => Certificate) public certificates;\n\n    address[] public adminAddresses;\n    address[] public universityAddresses;\n\n    address public contractOwner;\n\n    modifier onlyOwner() {\n        require(msg.sender == contractOwner, \"Caller is not the owner\");\n        _;\n    }\n\n    modifier onlyAdmin() {\n        require(contractAdmins[msg.sender], \"Caller is not an admin\");\n        _;\n    }\n\n    modifier onlyAuthorized(address universityAddress) {\n        bool isAuthorized = false;\n        for(uint i = 0; i < universities[universityAddress].authorizedAddresses.length; i++) {\n            if (universities[universityAddress].authorizedAddresses[i] == msg.sender) {\n                isAuthorized = true;\n                break;\n            }\n        }\n        require(isAuthorized, \"Caller is not authorized for this university\");\n        _;\n    }\n\n    constructor() {\n        contractOwner = msg.sender;\n    }\n\n    function addAdmin(address admin) public onlyOwner {\n        contractAdmins[admin] = true;\n        adminAddresses.push(admin);\n    }\n\n    function removeAdmin(address admin) public onlyOwner {\n        contractAdmins[admin] = false;\n    }\n\n    function addUniversity(address universityAddress, string memory name) public onlyAdmin {\n        University memory newUniversity = University({\n            name: name,\n            authorizedAddresses: new address[](0)\n        });\n        universities[universityAddress] = newUniversity;\n        universityAddresses.push(universityAddress);\n    }\n\n    function authorizeAddress(address universityAddress, address toAuthorize) public onlyAdmin {\n        universities[universityAddress].authorizedAddresses.push(toAuthorize);\n    }\n\n    function addCertificate(\n        address universityAddress,\n        string memory name,\n        uint academicYear,\n        uint date,\n        string memory issuer,\n        string memory gpa,\n        string memory behavior,\n        string memory certificateType,\n        string memory certificateId,\n        string memory fileHash\n    ) public onlyAuthorized(universityAddress) {\n        Certificate memory newCertificate = Certificate({\n            name: name,\n            academicYear: academicYear,\n            date: date,\n            issuer: issuer,\n            gpa: gpa,\n            behavior: behavior,\n            certificateType: certificateType,\n            certificateId: certificateId,\n            fileHash: fileHash\n        });\n        certificates[fileHash] = newCertificate;\n    }\n\n    function validateCertificate(string memory fileHash) public view returns (bool) {\n        bytes memory tempEmptyStringTest = bytes(certificates[fileHash].name);\n        if(tempEmptyStringTest.length == 0) {\n            return false;\n        }\n        else {\n            return true;\n        }\n    }\n\n    function getAdmins() public view returns (address[] memory) {\n        return adminAddresses;\n    }\n\n    function getUniversities() public view returns (address[] memory) {\n        return universityAddresses;\n    }\n\n    function getUniversityDetails(address universityAddress) public view returns (string memory, address[] memory) {\n        return (universities[universityAddress].name, universities[universityAddress].authorizedAddresses);\n    }\n}\n",
  "sourcePath": "/Users/pritishna/Documents/Experiments/NFTAution/nft-auction-house/contracts/DocumentVerification.sol",
  "compiler": {
    "name": "solc",
    "version": "0.8.19+commit.7dd6d404.Emscripten.clang"
  },
  "schemaVersion": "3.4.13",
  "updatedAt": "2023-05-31T19:37:45.621Z",
  "networkType": "ethereum",
  "devdoc": {
    "kind": "dev",
    "methods": {},
    "version": 1
  },
  "userdoc": {
    "kind": "user",
    "methods": {},
    "version": 1
  }
}